:201000000000000000000000ABCDEF00000000000000000000000000000000000000000069
:202000000000000000ABCDEF00000000000000000000000000000000000000000000000059
:207000000C948D3EFFFFFFFFFFFFFFFFFFFFFFFFFFFFFFFFFFFFFFFFFFFFFFFFFFFFFFFF21
:20702000FFFFFFFFFFFFFFFF0C94B73DFFFFFF12010002FF010020EB03F42F00000102037B
:20704000010902120001010080320904000000000000000C03410054004D0045004C0016B9
:2070600003410054006D0033003200550034004400460055000C0331002E0030002E003042
:20708000000403090416010C0100000C0000016C7FFF12BD01BDF89A00B5089501E00895D2
:2070A000F999FECF12BD01BD20BDFA9AF99AF6CFF999FECF0C944938F80104910895F80177
:2070C000349131962491890108950091610000930C0100E80093610001E00093610005BF41
:2070E00002E005BF0C9486380091D70001600093D700A89507EF04BF00916000006100937E
:20710000600000E00093600001E008950E94AA3D0E94B53DFDCF0CD00F7708D0006806D05D
:20712000006104D0016028D0789408950093D8000091D8000895FCDF00621ED04CD009B5A2
:2071400000FFFDCFF5DF0F7D17D00091E0000E7F0093E0000091E000077F0093E0000091B1
:20716000E20001600093E2000091E20008600093E20078940C94743B0093D8000895009113
:207180000D01002359F40091D90000FF07C0D0DF0068F2DF01E000930D01CDDFE0E2F2E097
:2071A0000081018100FF0DC0008111811E7F1183008301E00093EA0000E00093EA000093EB
:2071C0001E0200E00093E9000091E80003FF02C00E94F23B0895A89539D000E4009360006D
:2071E00000E0009381000093800010E0009385000093840001E006BB0091810003600093BF
:2072000081000091600007FFFCCF00E80093600010938100A89507EF04BF18D0109360004B
:2072200020918400309185001093810010938000109385001093840001E006BB2D3D3540BC
:2072400010F002E101C002E009BD08950091600000610093600008950E94AD3E239741D10A
:2072600000E000930901B5D104811581012B51F437D100910701002309F4B9C000E00093D2
:207280000701B5C058D102FFFDCF37D1068335D100930F0132D1009310012FD100931101F5
:2072A0002CD10093120129D1009313010285209113013091120140911101509110011681FE
:2072C0001A9541F01250A9F01A9599F11A9509F473C08BC010910F01113011F411E001C0C7
:2072E00010E0138799D00C3F11F414D17FC077D17DC092D010910F01112329F01A9549F05A
:207300001A95A9F073C010E013870C3F09F06EC0ECCF56D103C04CD109F468C00D911C91C4
:2073200044D10F3FC1F305E0009309015FC011E0EBCFD2D029F00250E1F10A9541F056C025
:20734000FDD00E94A33F0FEF00930A014FC0552319F05A9579F04AC04ED00DEF04BF74D02D
:20736000EAD003FFFDCF67D051D04AD008E000936000FFCF40D068D0DED003FFFDCF5BD07B
:207380003FD044D00FEF1FE004C009811A810150104009831A8309811A81012BB1F700E839
:2073A0000093610000910C01009361000C940000FFCF01E003871AC08FD019F00A9539F064
:2073C00015C0535098F4BAD002E000870FC0505339F05A9541F05F52B1F35A95A1F306C05D
:2073E00002E00883F0CF01E0FCCFA8D079D02396E4E00C94BA3E01E005BF00E005BF0895F9
:207400000091D8000F770093D800089509B50D7F09BD00E009BD0895518340833383228330
:207420001091E8001B7F1093E8001091E8001F771093E80008955DD053D0F8940091E0000A
:2074400001600093E000089579D04AC0219749D000910601035019F00250B9F00BC03CD0D1
:2074600021F00A9559F00A9529F400910A010C3F19F450D02196089567D0FCCF009101015A
:207480000093F100009100010AC01091100124D019F00A9549F0EECF135018F400E00093E6
:2074A000F1001ED044D0E6CF105339F01A9539F01F5241F01A9541F0F4CF08E5F0CF00E0EF
:2074C00006D0EDCF02E0FCCF04E001D0E8CF10E020E030E00C94113F00910F0100230895B0
:2074E00021C00BD008D007D00093040106D00093050121D00BC000D008830091F1000895E4
:207500000091EB0000620093EB0015D0077F0093E8000895F5DF02E00093080103E00093C4
:207520000901089559D007D000FFFDCF089503D002FFFDCF03C00091E8000895FCDF0B7F5E
:20754000E6DFF9DF0F77E3CF0E94AC3E42D038D006C02BD00093F1002BD059F43DD0082FDF
:20756000092BA9F0E8DF02FD12C0E5DF00FFFDCF4424042D4394003289F300910B01002339
:207580000D911C9131F311970E945838E3CFD3DF00FFFDCF21D0CFDF00FFFDCFCCDF02FF5D
:2075A000FDCFCCDFE5E00C94B93E11970C945C380D911C910F5F1F4F1C930E930197089570
:2075C0008281938100811181801B910B0196DF010895E0E0F1E00895AEDF0E7F98CF0E94E5
:2075E000A93EF7DF80819181A081B181AF710481158100521040048315830AC000910B0105
:20760000002331F4A301920103E911E00E943B3F47D0B8F1662477242C0111C06EDFF301CE
:20762000ED56FE4F008301E0600E00E0701E01960091F200002311F033D0B8F47FDF30D02F
:20764000E8F2F301B096E238F040C0F674DF02FFFDCF0091F200BDDF24813581201B3040D1
:2076600024833583E5CF49DFAA95AA23E1F700910B01013099F62091F1008C010E94503835
:20768000D6CF04811581012B21F055DF02FFFDCF55DFA2DF50DF00FFFDCFE8E00C94B63EE1
:2076A000E0E0F1E0028113810817190708952091EB0021602093EB000093EC000091ED008E
:2076C0000270012B0093ED000091ED0002600093ED001091EE00012F000F00E0001F0895C2
:2076E000412F0093E900089500E009D000FD05C000E0F7DF10E202E0DACF00E00895F1DF06
:207700000091EB0008950F770132A9F5112369F11A9559F01A9561F01A9569F01A95F9F0D3
:207720001A95C1F01A95D9F024C00E942C3920C00E94263A1DC029D00091090123D001E05F
:207740001FD020D0009108011BD00E94923A0E94973A0EC01AD00091080114D007C002E005
:207760000093080100E0009309010FD00E94923A03C00E94803A02C001E0089500E00895C7
:2077800001D000E00093F10008950091E800077F0093E800089508950350F9F4112339F0C6
:2077A0001A9551F01A9581F01A9599F016C004E016D001E810E703C011D003E510E7E7E1B6
:2077C000F2E000831183D8CF06E109D00FE510E7F6CF04D005E710E7F2CFD0CF0CE0009313
:2077E0001A02089527D120D100931D02E1D0212F112329F12A95E9F02250F1F0225099F000
:207800002A9549F0225061F02A9581F02A95E1F02A95E9F023C0003809F44FC00C94833BD0
:207820000038E1F7C8C00023C9F71EC00023B1F72DC0033098F744C1033080F70BC10038C2
:2078400068F3033858F7C9C0013841F77BC1013051F4FCD0BFD000FD06C0FCCF0E94833B4E
:20786000002309F41ED008951091E3001078DCD00F77012B0093E300E9D0ACD000FFFDCF7D
:207880000091E30000680093E300089591D0123040F40FD010931E02DAD000911E020C9485
:2078A000CB3B0091EB0001D004C000620093EB0008950091E800077FC0C0BA93AA93229772
:2078C00000E00093190274D0AFD0202F2A9519F02A95E9F022C002E100931A020FE210E74C
:2078E000E7E1F2E0008311839DD008839DD00983E0DF00911A0210E02881398102171307F4
:20790000A8F40F7181F401E00093190211C002E100931A0201E410E7E3CF0E94CC3B00238A
:2079200019F78ED040C01093190202C020931A027ED0A7E1B2E001C08AD000911A02002337
:2079400009F148D004FD1EC045D000FD03C042D004FFFACF10E0012F1395003281F0ED919A
:20796000FC911197049133D02D913C912F5F3F4F3C932E93FD0103810A95038361F72AD00A
:2079800004FFDACF00911902013039F423D004FD04C020D000FFFDCF5AD01CD004FFFDCFD9
:2079A00046D018D00B7F49D02296A991B99108951091F10008957DDF00911E0208D047D022
:2079C00009D00F773AD006D002FFFDCFBFC00093F10008950091E800089524D010911D0231
:2079E000105829F01A9589F01A9591F019C061DF00911C02ECDF00E0EADF29D0EBDF02FFAE
:207A0000FDCF18D0E7DF0F770CC053DF00E0F2CF51D00F7710E0F801E55EFD4F0081EACF6E
:207A20000FD00BC001D000D00091F1000895D2DF0F7E03C00091E8000B7F0093E8000895C0
:207A40000091EB0032DFC6DF077F089532DFC2DF0E7FF3CF00911D02002329F00A9509F14B
:207A60000A9531F01EC0E0DF0A9561D0D9F41AC061D0B9F4D9DF0F7711F416D01BD00093AD
:207A8000E9001091EB0010FF0BC00ED010E01093E90021E0F801E55EFD4F20834FD003C02F
:207AA00042D045D0CFDFC9CF1091EB0010621093EB0008951091E800177F1093E8000895E9
:207AC00000911D02002311F4AFDF02C0013011F4B7DFB3CF023031F52DD019F52091F1002B
:207AE0002F772093E90023D000FF19C081F01FD00061DCDE01E010E0422F0E949F3E0093AA
:207B0000EA0000E00093EA0012D00860CFDE0BD030E0F901E55EFD4F008310D0DACF03D0D4
:207B2000D7CFBFDE089500E00093E90008950091EB00089579DF3CDF00230895BADE4ADF5F
:207B40000E7F089583DF46DF02FFFDCF73DF42DF0F7773CF0091D70001600093D7000E9497
:207B60008B3800E000931F0208950C94BF388A93FA93EA933A922A921A920A927A936A9379
:207B80005A934A933A932A931A930A938FB70091DA0000FF24C00091D80000FF20C00EEF6E
:207BA0000093DA000091D90000FF11C001E000930D01ABD0026096D09AD00860A2D00E9473
:207BC0009B380091E0000E7F0093E00008C000E000930D0100931E0298D0046083D07FD0F7
:207BE00002FF05C084D002FF02C00BEF75D077D000FF1BC07CD000FF18C001E000930E01A2
:207C00006AD083D000626ED00EEF6FD0006179D06ED00F7D76D00091D80000620093D8000B
:207C200009B50D7F09BD00E009BD59D004FF20C05ED004FF1DC009B500FD05C00E94EB382F
:207C400009B500FFFDCF0091D8000F7D0093D80042D000910E01002359F04CD00FEE45D0EF
:207C60000F7E52D000643ED042D001604AD042D036D005FF0FC03BD005FF0CC000E000931D
:207C80000E0135D00F7E3DD00FED2FD00F7D3CD0006828D024D003FF0DC029D003FF0AC0BB
:207CA00000E000931F0207EF17D00E94743B2DD0116018D08FBF09911991299139914991BC
:207CC0005991699179910990199029903990E991F991899118950FEE0093E1000895009188
:207CE000E10008951183008308950093E1000091E20008950091E200006203D00091E200B3
:207D000008600093E2000895FCDFE0E2F2E000811181089500008895FECF01E60DBF02E04B
:207D20000EBFC2EED2E00E947438002311F00E94D33E0E9465380E948A3E0C948A3E4A95FF
:207D40001AF0000F111FFBCF0895BA92AA929A928A927A926A925A924A92BA93AA939A931C
:207D60008A930895BB84AA84998488847F806E805D804C80BB81AA8199818881F0E00FB6FE
:207D8000F894CE0FDF1F0FBE089520E006D0E9F70895259102D0E9F708952D930150104059
:207DA000202F212B089585E890E7FC0105911491FC013296A591B491FC01349625913491ED
:207DC000422F432B19F0F901E4DF01C0DEDF069610E78139910748F308952F930CD02F9165
:207DE00001D008953CD0F12FE02F45E047BFE89536D012D0089533D0F12FE02F43E047BF52
:207E0000E8952DD008952BD0F12FE02F43E047BFE89525D001D0089522D041E147BFE89581
:207E20001EC01DD0F12FE02F41E247BFC895002D16C015D0F12FE02F49E047BFC895002DF2
:207E40000EC0F32FE22F012E102E41E047BFE89506C005D0002E29E027BFE89500C0022EEB
:207E600027B720FDFCCF202D0895022E27B726FDFCCF202D08950E94A53E22974801C9011B
:207E8000DA0110C05BD001E0A00E00E0B01E00E4A01600E0B00608F440C0830120E030E00F
:207EA0000E94F23E0A2F0B2B09F440C0082F0F7710E02C01401A510A320100E4A02E03C04D
:207EC0000A2F0B2BE1F04816590680F0F40101914F010983119729F001914F0108831197FC
:207EE00011C0F2013196049108830CC0F201049109833196E817F907A1F7F401EDCF1BD0FD
:207F0000088319839201088119810E94213F16D0AA94B1F62301AA24BB240DD0312F0F3F5B
:207F20003F4F09F4AFCF83011DD0B7CF01E02296ECE00C94B23E82010C945F3802E0400E62
:207F400000E0501E08959A938A9380E090E08C0109D080589F4F8F3F0FE69007C0F38991C9
:207F60009991089520E030E00C94FB3E00000000000000000000FC00FFFFFFFFFFFFFFFF5D
:207F800047BFE895F894FFCF00000000000000000000000000000000000000000000000004
:207FA000FFFFFFFF0895FFFFFFFFFFFFFFFFFFFFFFFFFFFFFFFFFFFFFFFFFFFFFFFFFFFF42
:207FC000FFFFFFFFF894FFFFFFFFFFFFFFFFFFFFFFFFFFFFFFFFFFFFFFFFFFFFFFFFFFFF33
:207FE000FFFFFFFF0C94ED3E0C94113F0C94193F0C94213F0C94F23E0C94033F0C94293F18
:00000001FF
