:200000000C9467010C948F010C948F010C948F010C948F010C948F010C948F010C948F0188
:200020000C948F010C948F010C9484060C9450050C948F010C948F010C948F010C948F0181
:200040000C948F010C948F010C948F010C948F010C948F010C948F010C948F010C94A90106
:200060000C948F010C948F010C948F010C948F010C948F010C948F010C948F010C948F0100
:200080000C948F010C948F010C948F010C948F010C948F010C948F010C948F010C948F01E0
:2000A0000C948F010C948F010C948F01AC02AF029E02A202A802D002D002D002B302B7027F
:2000C000BB02C102C502D002CB020000000200090F0000030401000C00000000000000000C
:2000E00000000000000000000408020110408040102040804080080204018040201002012F
:2001000010801020404004040404040304050202020204030202020206060606060604043C
:200120000202020400000000250028002B002E00310000000000240027002A002D0030000C
:2001400000C18081C112010002020000404123368000010102000112010002000000404110
:2001600023368000010102000141726475696E6F204C4C430041726475696E6F204C656FC2
:200180006E6172646F0004030904080B0002020201000904000001020200000524001001D1
:2001A00005240101010424020605240600010705810310004009040100020A0000000705AD
:2001C00002024000000705830240000000000000000000002A2B280000000000000000008D
:2001E0000000000000000000000000002C9EB4A0A1A2A434A6A7A5AE362D3738271E1F20D0
:20020000212223242526B333B62EB7B89F8485868788898A8B8C8D8E8F90919293949596BA
:200220009798999A9B9C9D2F3130A3AD350405060708090A0B0C0D0E0F101112131415167C
:200240001718191A1B1C1DAFB1B0B500090402000103000000092101010001226500070550
:20026000840340000105010902A1010901A1008501050919012903150025019503750181B4
:200280000295017505810305010930093109381581257F750895038106C0C005010906A102
:2002A000018502050719E029E71500250175019508810295017508810395067508150025E7
:2002C000650507190029658100C0B607090911241FBECFEFDAE0DEBFCDBF11E0A0E0B1E041
:2002E000ECE8F2E102C005900D92A832B107D9F721E0A8E2B1E001C01D92A739B207E1F702
:2003000012E0CEECD2E004C02297FE010E944009CA3CD107C9F70E9441030C9444090C9407
:20032000000061E08DE00C94D10261E08DE00E940A0368EE73E080E090E00E94160260E0CC
:200340008DE00E940A0368EE73E080E090E00C9416021F920F920FB60F9211242F933F93CF
:200360008F939F93AF93BF938091290190912A01A0912B01B0912C013091280123E0230F24
:200380002D3720F40196A11DB11D05C026E8230F0296A11DB11D209328018093290190935D
:2003A0002A01A0932B01B0932C0180912D0190912E01A0912F01B09130010196A11DB11DBE
:2003C00080932D0190932E01A0932F01B0933001BF91AF919F918F913F912F910F900FBED7
:2003E0000F901F9018953FB7F89480912D0190912E01A0912F01B091300126B5A89B05C03B
:200400002F3F19F00196A11DB11D3FBF6627782F892F9A2F620F711D811D911D42E0660FAD
:20042000771F881F991F4A95D1F70895CF92DF92EF92FF92CF93DF936B017C010E94F3014C
:20044000EB01C114D104E104F10489F00E94F8060E94F3016C1B7D0B683E734090F381E031
:20046000C81AD108E108F108C851DC4FEACFDF91CF91FF90EF90DF90CF900895789484B554
:20048000826084BD84B5816084BD85B5826085BD85B5816085BDEEE6F0E08081816080839A
:2004A000E1E8F0E01082808182608083808181608083E0E8F0E0808181608083E1E9F0E02F
:2004C000808182608083808181608083E0E9F0E0808181608083E1ECF0E08081846080834E
:2004E000808182608083808181608083E3ECF0E0808181608083E0ECF0E08081826080832B
:20050000E2ECF0E0808181608083EAE7F0E080818460808380818260808380818160808304
:20052000808180688083089590E0FC013197EF30F105B0F5EA5AFF4F0C943E098091800039
:200540008F7703C0809180008F7D80938000089580918000877FF9CF84B58F7702C084B56C
:200560008F7D84BD0895809190008F7707C0809190008F7D03C080919000877F8093900069
:2005800008958091C0008F7703C08091C0008F7D8093C00008958091C200877F8093C20029
:2005A0000895CF93DF9390E0FC01E851FF4F2491FC01EA5FFE4F8491882349F190E0880F8D
:2005C000991FFC01EE5CFE4FA591B4918C5D9E4FFC01C591D4919FB7611108C0F8948C918D
:2005E000209582238C93888182230AC0623051F4F8948C91322F309583238C938881822BE9
:20060000888304C0F8948C91822B8C939FBFDF91CF9108950F931F93CF93DF931F92CDB76E
:20062000DEB7282F30E0F901E653FF4F8491F901E851FF4F1491F901EA5FFE4F04910023BA
:20064000C9F0882321F069830E9494026981E02FF0E0EE0FFF1FEC5DFE4FA591B4919FB7B6
:20066000F8948C91611103C01095812301C0812B8C939FBF0F90DF91CF911F910F9108950D
:2006800008950E943E020E94400381E391E00E94DA060E949101C0E0D0E00E94950120972C
:2006A000E1F30E940000F9CF4091350150913601209133013091340142175307B4F4909186
:2006C000E8009570E1F39091E80092FD19C08093F100809135019091360101968F739927EC
:2006E000892B19F48EEF8093E80080913501909136010196909336018093350181E00895EA
:2007000080E00895CF92DF92FF920F931F93CF93DF931F92CDB7DEB7082F162F862F880FBF
:200720008E5F99830E94540383E00E945403F02EC02E9981D92E8C2D8F19811778F4F601D2
:2007400084910E945403082F80E00E9454038023FFEFCF1ADF0A8111EECF01C081E00F9088
:20076000DF91CF911F910F91FF90DF90CF900895615030F02091F100FC0120830196F8CFEE
:20078000289884E68093380108952FB7FC012083F89467706093E9000895CF93DF931F925F
:2007A000CDB7DEB7682FCE0101960E94C5038091F20099819FBF0F90DF91CF910895FF92A1
:2007C0000F931F93CF93DF9300D0CDB7DEB7F62E8A0190913701992311F057FF03C08FEFAC
:2007E0009FEF2BC0682FCE0101967A830E94C5038091F20090E0A8017A81801791070CF4D6
:20080000AC01EF2DF72FF40E84E6FE1639F02898809338019091F1009193F7CF411551058C
:2008200021F08091F200882321F089818FBFCA0104C08BE68093E800F8CF0F900F90DF9120
:20084000CF911F910F91FF900895CF93DF931F92CDB7DEB741E050E0BE016F5F7F4F0E94D0
:20086000DF03019719F4898190E002C08FEF9FEF0F90DF91CF910895CF93DF931F92CDB794
:20088000DEB7682FCE0101960E94C5039091E800892F807295FF04C09091F20080E4891B36
:2008A00099819FBF0F90DF91CF9108956F927F928F929F92AF92BF92CF92DF92EF92FF92DA
:2008C0000F931F93CF93DF931F92CDB7DEB7782E7B01C42EB52E80913701882369F0042FAF
:2008E000152F8AEFD82E872D8072982E9AE3A92E872D8074882E11C08FEF9FEF57C0872D6F
:200900000E943C04682E81110CC0DA94A9F361E070E080E090E00E9416020115110579F740
:200920003BC0282F30E0021713070CF4602E672DCE0101960E94C5038091E80085FF29C0CA
:20094000262D30E0021B130B992039F06A948FEF6816B1F01092F100F9CFF701862D77FE01
:2009600007C0815058F094919093F1003196F9CF815020F091919093F100FACFE20EF31EEE
:200980008091E80085FF0FC00115110511F481100AC089818FBFC1CF5D9884E680933901EB
:2009A0008C2D9B2D03C0A092E800F3CF0F90DF91CF911F910F91FF90EF90DF90CF90BF902D
:2009C000AF909F908F907F906F9008951092E9001092360110923501909334018093330104
:2009E0000895CF92DF92FF920F931F93CF93DF9300D0CDB7DEB7F82E8A016B01011511059D
:200A0000B1F0F601F7FE02C0849101C0808149835A830E94540301501109FFEFCF1ADF0AE3
:200A200049815A818111EACF8FEF9FEF01C0CA010F900F90DF91CF911F910F91FF90DF90D2
:200A4000CF9008951F93CF93DF931F92CDB7DEB7162F2091E80022FFFCCF612F79830E9452
:200A6000B8038BEF8093E800812F7981972F0F90DF91CF911F910895CF93DF931F92CDB711
:200A8000DEB71982CE0101960E945607CE0101960E94F107898190E00F90DF91CF9108953B
:200AA0001F920F920FB60F921124EF92FF920F931F932F933F934F935F936F937F938F9345
:200AC0009F93AF93BF93EF93FF93CF93DF93CDB7DEB76297DEBFCDBF1092E9008091E800A9
:200AE00083FFEBC068E0CE010A960E94B80382EF8093E8009A8597FF05C08091E80080FF57
:200B0000FCCF03C08EEF8093E800892F807609F0B9C08B85811105C01092F1001092F10022
:200B2000C5C0282F2D7F213009F4C0C0853049F48091E80080FFFCCF8C8580688093E3003B
:200B4000B5C0863009F076C02D85E888F988223071F580E090E02A8B0E94E6040E943C05EC
:200B600099E08E010F5F1F4FF801392F11923A95E9F799832A892A8391E09E8390E8988739
:200B80009AEF99872091350130913601275F3F4F3C832B838D83C7010E94E60449E050E08F
:200BA000B80180E00E94F1040E943C057FC0C7012A8B0E94E6042A89223241F482E290E04A
:200BC0000E94FC07892B09F071C074C0213069F488899989089711F42093320180913201AF
:200BE000811118C067E571E01AC0233009F062C08C85882391F0823021F460E185E791E084
:200C000006C0813009F056C06BE089E691E00E9482034AC065E471E002C066E871E0611581
:200C2000710509F447C0FB01449150E080E80E94F1043CC0873009F43DC0883021F481E05F
:200C40008093F10033C0893089F5937099F5E1E4F1E081E021E096E38093E9002093EB00CA
:200C600034913093EC009093ED008F5F3196853099F78EE78093EA001092EA008C858093D4
:200C8000370114C0888999890E94E6048E85811105C0CE010A960E94610706C0823051F4E9
:200CA000CE010A960E942408882321F08EEF8093E80003C081E28093EB0062960FB6F89456
:200CC000DEBF0FBECDBFDF91CF91FF91EF91BF91AF919F918F917F916F915F914F913F91AE
:200CE0002F911F910F91FF90EF900F900FBE0F901F9018958093E9008091F200882319F0BC
:200D00008AE38093E80008951F920F920FB60F9211242F933F934F935F936F937F938F9343
:200D20009F93AF93BF93EF93FF938091E1001092E10083FF0FC01092E90091E09093EB0009
:200D40001092EC0092E39093ED001092370198E09093F00082FF1DC083E00E947A06809127
:200D60003901882339F080913901815080933901882369F080913801882359F08091380170
:200D8000815080933801811104C0289A02C05D9AF1CFFF91EF91BF91AF919F918F917F91A5
:200DA0006F915F914F913F912F910F900FBE0F901F9018951092370181E08093D70080EADD
:200DC0008093D80082E189BD09B400FEFDCF61E070E080E090E00E94160280E98093D80089
:200DE0008CE08093E2001092E000559A209A08950895CF93DF931F92CDB7DEB76983DC01C6
:200E0000ED91FC910280F381E02D41E050E0BE016F5F7F4F09950F90DF91CF910895CF930C
:200E2000DF93EC018C859D8597FF05C082E00E9425049D878C878C859D85DF91CF910895C1
:200E400083E00C947A06FC018485958597FD06C082E00E94CD0390E00196089582E00E9419
:200E6000CD0390E00895FC018485958597FD05C02FEF3FEF35872487089582E00C942504A1
:200E8000CF93DF93EC0180910701882331F083E00E9456041816190634F081E090E09B83ED
:200EA0008A8380E090E0DF91CF910895FC0120812E5F208342E450E06AE871E080E80C9419
:200EC000F104FC0181819081913A59F4813209F03CC047E050E060E071E080E00E94F1046E
:200EE00043C0913291F5803239F467E070E080E091E00E94220506C0823209F035C082812B
:200F0000809307018091000190910101A0910201B0910301803B9440A105B105C1F4809157
:200F2000070180FD14C087E797E790930108809300082BE088E190E00FB6F894A8958093A0
:200F400060000FBE209360000FC080E0089588E10FB6F89480936000109260000FBEA8954C
:200F6000109201081092000881E0089510923D0110923C0188EE93E0A0E0B0E080933E0114
:200F800090933F01A0934001B09341018EE091E090933B0180933A018FEF9FEF90934701F2
:200FA000809346010895FF920F931F93CF93DF93EC01F62EE881F9810480F581E02D0995E8
:200FC0008C01E881F9810680F781E02D6F2DCE010995C8019927DF91CF911F910F91FF9055
:200FE0000895FC0120812F5F208349E150E06CE472E080E80C94F10445E650E065E672E094
:2010000080E80C94F104EF92FF920F931F93CF93DF931F92CDB7DEB789838B017A0141E09B
:2010200050E0BE016F5F7F4F84E00E945604A701B80184E40E9456040F90DF91CF911F91E1
:201040000F91FF90EF900895FC0191818081813A31F481E0913091F0933089F411C08132EE
:2010600071F49B3021F482818093090105C09A3031F482818093080181E00895089580E03D
:20108000089548E050E082E00C940308CF93DF93DC01683818F0E8E7E60F25C0E62FF0E067
:2010A00067FF11C0E058F10981E090E001C0880FEA95EAF714969C911497982B14969C9320
:2010C0001497E0E010C0E453FE4FE491EE2309F440C0E7FF08C014968C9114978260149622
:2010E0008C931497EF7716968C9116978E1741F117968C9117978E1719F118968C911897D2
:201100008E17F1F019968C9119978E17C9F01A968C911A978E17A1F01B968C911B978E1796
:2011200079F080E090E0ED01C80FD91F2E81211102C0EE8305C0019686309105A1F709C09C
:20114000BD016C5F7F4FCD010E94410881E090E008C081E090E013969C938E93129780E013
:2011600090E0DF91CF910895683818F0E8E7E60F25C0E62FF0E067FF12C0E058F10921E0F1
:2011800030E001C0220FEA95EAF72095DC0114963C911497322314963C93E0E00FC0E453A5
:2011A000FE4FE491EE2329F1E7FF08C0DC0114962C9114972D7F14962C93EF7720E030E01A
:2011C000EE2351F0DC01A20FB31F16964C9116974E1302C016961C922F5F3F4F2630310502
:2011E00079F7BC016C5F7F4F0E94410881E090E0089580E090E00895FC011682178210869F
:201200001186128613861482BC016C5F7F4F0C9441081092960110928D0110928C018EE12A
:2012200091E090938B0180938A010895CF92DF92EF92FF920F931F93CF93DF936C017A015F
:20124000EB01E60EF71E00E010E0CE15DF0561F06991D601ED91FC910190F081E02DC601FF
:201260000995080F191FF1CFC801DF91CF911F910F91FF90EF90DF90CF900895EE0FFF1F44
:201280000590F491E02D0994F894FFCF00E1000000000000010100000000F90640072307DD
:2012A00033070F07200700000000D30716094608B408FC08FFFFFFFFFFFFFFFFFFFFFFFFBC
:2012C000FFFFFFFFFFFFFFFFFFFFFFFFFFFFFFFFFFFFFFFFFFFFFFFFFFFFFFFFFFFFFFFF2E
:2012E000FFFFFFFFFFFFFFFFFFFFFFFFFFFFFFFFFFFFFFFFFFFFFFFFFFFFFFFFFFFFFFFF0E
:20130000FFFFFFFFFFFFFFFFFFFFFFFFFFFFFFFFFFFFFFFFFFFFFFFFFFFFFFFFFFFFFFFFED
:20132000FFFFFFFFFFFFFFFFFFFFFFFFFFFFFFFFFFFFFFFFFFFFFFFFFFFFFFFFFFFFFFFFCD
:2070000055C000006EC000006CC000006AC0000068C0000066C0000064C0000062C0000043
:2070200060C000005EC00000F2C400005AC0000058C0000056C0000054C0000052C00000EE
:2070400050C0000078C000004CC000004AC0000048C0000046C0000044C0000042C00000BE
:2070600040C000003EC000003CC000003AC0000038C0000036C0000034C0000032C0000048
:2070800030C000002EC000002CC000002AC0000028C0000026C0000024C0000022C00000A8
:2070A00020C000001EC000001CC0000011241FBECFEFDAE0DEBFCDBF11E0A0E0B1E0E2E3BC
:2070C000FFE702C005900D92A83AB107D9F711E0A8EAB1E001C01D92AE3BB107E1F78FD30B
:2070E00026C78ECFF89410926F0010928100109285001092840081E085BF15BE47985D9AEB
:20710000289A0C94000008952091B2013091B3012F5F3F4F3093B3012093B201932F37FFA6
:2071200003C08EEF831B982F990F921710F447980895479A08951F920F920FB60F9211246E
:207140002F938F939F93EF93FF9310928500109284008091A8019091A901009741F00197D3
:207160009093A9018093A801892B09F45D9A8091AA019091AB01009741F001979093AB0126
:207180008093AA01892B09F4289AE0E0F0E0859194918F5F9F4F49F08091AC019091AD0151
:2071A00001969093AD018093AC01FF91EF919F918F912F910F900FBE0F901F90189584E0BC
:2071C0008093E9000DC08091E8008B778093E80003C08EB3882351F08091E80082FFF9CFBE
:2071E0008091E80085FFEFCF8091F1000895982F83E08093E9008091E80085FD0DC0809136
:20720000E8008E778093E80003C08EB3882369F08091E80080FFF9CF9093F1005D9884E6CB
:2072200090E09093A9018093A80108954F925F926F927F928F929F92AF92BF92CF92DF921E
:20724000EF92FF920F931F93CF93DF9384E08093E9008091E80082FF57C2289884E690E067
:207260009093AB018093AA01AADF182F853481F48CE49DE19093AD018093AC0107B600FC4B
:20728000FDCFF999FECF81E180935700E89503C0843519F494DF8DE00DC28C34E1F38035F9
:2072A000D1F3843721F484E4A2DF80E003C2813611F489E5FFC18134B1F481DF182F7FDFE3
:2072C00090E0880F991FAA2797FDA095BA2F312F330F20E0442737FD4095542F822B932B68
:2072E000A42BB52BB8C1803711F483E5E3C1833549F4C0E0D1E089917ADF21E0C730D20714
:20730000D1F7D9C1863521F481E371DF80E3D2C1833731F487E86BDF85E969DF8EE1CAC149
:207320008536B9F4E0E0F0E093E085E090935700E89507B600FCFDCF80935700E89507B65D
:2073400000FCFDCFE058FF4FA0E7E030FA0771F7A2CF823739F4E1E0F0E089E08093570024
:207360008491A8C1863439F4E0E0F0E089E08093570084919FC18E3439F4E3E0F0E089E0E5
:2073800080935700849196C1813539F4E2E0F0E089E08093570084918DC1823631F489E521
:2073A00026DF80E024DF80E885C1823419F0873609F0E5C01092AD011092AC0100DF082FE8
:2073C000FEDEF82EFCDE682E8554823008F071C1902F80E0CF2DD0E0C82BD92B10926F00B3
:2073E000173609F04BC081E180935700E895DD24CC24C3943FC0E090AE01F090AF010091CC
:20740000B0011091B101B6E46B16D9F4ED2DF0E0EE29FF29E4918E2FEADEDD2081F082E08D
:2074200090E0A0E0B0E0E80EF91E0A1F1B1FE092AE01F092AF010093B0011093B101DC2470
:2074400018C0D801C701B695A7959795879559D5CEDE82E090E0A0E0B0E0E80EF91E0A1FF2
:207460001B1FE092AE01F092AF010093B0011093B1012197209709F0BECF7DC08090AE01F5
:207480009090AF01A090B001B090B10196E4691609F05DC083E0F40180935700E89507B63E
:2074A00000FCFDCF54C0F6E46F1661F5772031F1E090AE01F090AF010091B0011091B1019E
:2074C0007EDED82ECC24852D90E08C299D29F7010C0140925700E895112482E090E0A0E08B
:2074E000B0E0E80EF91E0A1F1B1FE092AE01F092AF010093B0011093B10102C060DE582E1A
:20750000742423C0E090AE01F090AF010091B0011091B10116950795F794E79450DE682FFA
:20752000C701F7D48091AE019091AF01A091B001B091B1010296A11DB11D8093AE01909349
:20754000AF01A093B001B093B101219704C05524772444244394209709F0A5CF96E46916B6
:2075600041F485E0F40180935700E89507B600FCFDCF8DE03CDE82E080936F009CC0833492
:2075800071F40091AE011091AF0119DE90E021E0F8010C0120935700E89511247CCE8336C8
:2075A00019F5E090AE01F090AF010091B0011091B10105DEF701E16090E021E00C0120938C
:2075C0005700E895112482E090E0A0E0B0E0E80EF91E0A1F1B1FE092AE01F092AF0100936A
:2075E000B0011093B10157CE8D3661F4E091AE01F091AF0185E080935700E89507B600FCF2
:20760000FDCF49CE823551F4E091AE01F091AF0105911491812FEBDD802F4CC0843421F5FE
:20762000E090AE01F090AF010091B0011091B10116950795F794E794C2DD682FC70169D4DE
:207640008091AE019091AF01A091B001B091B1010296A11DB11D8093AE019093AF01A093D8
:20766000B001B093B10117CE843609F5E090AE01F090AF010091B0011091B101D801C70142
:20768000B695A795979587953CD4B1DD82E090E0A0E0B0E0E80EF91E0A1F1B1FE092AE010A
:2076A000F092AF010093B0011093B10104C08B3111F08FE39CDD83E08093E9009091E8002B
:2076C0008091E8008E778093E80095FF04C010C08EB38823C9F08091E80080FFF9CF809193
:2076E000E8008E778093E80003C08EB3882361F08091E80080FFF9CF84E08093E9008091F1
:20770000E8008B778093E800DF91CF911F910F91FF90EF90DF90CF90BF90AF909F908F90AC
:207720007F906F905F904F9008959091B601892F8F77813249F58091B7018032A1F081328A
:2077400019F5913A09F58091E800877F8093E8008DE091E067E070E00BD28091E8008B770B
:207760008093E8000895913279F48091E800877F8093E8008DE091E067E070E05DD2809192
:20778000E8008E778093E800089582E061EC42E0B5D083E061E842E1B1D084E060E842E1EF
:2077A000ADC084B7877F84BF88E10FB6F89480936000109260000FBE20E880E090E00FB63F
:2077C000F89420936100809361000FBE81E085BF92E095BF3F9A209A559AE1E6F0E02083A1
:2077E000108247985D9A289A109289008AEF8093880090936F0083E080938100F0C0409116
:20780000000850910108109201081092000894B714BE88E10FB6F8948093600010926000D5
:207820000FBE292F30E0F901E270F07091FD18C090FF05C0859194918F5F9F4F81F423FFFF
:207840000FC08091090190910A014817590741F0E0E0F0E0859194918F5F9F4F09F042DC64
:20786000A0DF78941092AD011092AC010CC0DEDC36D38091AC019091AD0181549F4110F00D
:207880001092140141DC80911401882381F78091E00081608093E00025DC80E090E0089598
:2078A000FA01923049F0933061F09130F9F485E191E022E130E01EC087E291E02EE330E04D
:2078C00019C0882329F485E691E024E030E012C0813029F489E691E022E230E00BC0823006
:2078E00029F48DE891E028E130E004C080E090E020E030E091838083C90108958093E9004E
:207900008091EB0081608093EB001092ED006093EC004093ED008091EE00881F8827881F62
:2079200008958091B60188238CF403C08EB38823B1F08091E80082FFF9CF8091E8008B772A
:207940008093E80008958EB3882349F08091E80080FFF9CF8091E8008E778093E800089594
:20796000EF92FF920F931F9345D04CD008ED10E0F80180818F77808380818068808380819B
:207980008F7D808319BC1EBA1092B40180EEE82EF12CF70180818B7F8083F8018081816052
:2079A000808380E060E042E0A9DFE1EEF0E080818E7F8083E2EEF0E0808181608083808144
:2079C00088608083F70180818E7F8083F8018081806180831F910F91FF90EF900895E7ED06
:2079E000F0E08081816080838AE482BF81E08093B501B6CFE8EDF0E080818E7F808310921C
:207A0000E20008951092DA001092E10008951F920F920FB60F9211242F933F934F935F93F6
:207A20006F937F938F939F93AF93BF93EF93FF938091DA0080FF1BC08091D80080FF17C0B2
:207A40008091DA008E7F8093DA008091D90080FF0BC080E189BD82E189BD09B400FEFDCF36
:207A600081E08EBB3BD203C019BC1EBA37D28091E10080FF17C08091E20080FF13C0809138
:207A8000E2008E7F8093E2008091E20080618093E2008091D80080628093D80019BC85E049
:207AA0008EBB1CD28091E10084FF2CC08091E20084FF28C080E189BD82E189BD09B400FEC5
:207AC000FDCF8091D8008F7D8093D8008091E1008F7E8093E1008091E2008F7E8093E20012
:207AE0008091E20081608093E2008091B401882331F48091E30087FD02C081E001C084E067
:207B00008EBBECD18091E10083FF21C08091E20083FF1DC08091E100877F8093E10082E06A
:207B20008EBB1092B4018091E1008E7F8093E1008091E2008E7F8093E2008091E2008061E9
:207B40008093E20080E060E042E0D8DEC7D1FF91EF91BF91AF919F918F917F916F915F9130
:207B60004F913F912F910F900FBE0F901F9018959C014091BC015091BD014617570718F49D
:207B8000F90190E044C06115710511F0AB01F8CF8091E8008E778093E80040E050E0F0CF0F
:207BA0008EB3882309F444C0853009F443C08091E80083FF02C081E008958091E80082FD70
:207BC00031C08091E80080FF22C08091F3009091F200782F60E0292F30E0262B372B07C07A
:207BE00081918093F100415050402F5F3F4F4115510519F02830310598F390E02830310566
:207C000009F491E08091E8008E778093E8004115510531F6992321F605C08EB3882341F075
:207C2000853041F08091E80082FFF7CF80E0089582E0089583E008959C016115710529F47C
:207C40008091E8008B778093E800F90126C08EB3882391F1853091F18091E80083FF02C06C
:207C600081E008958091E80082FFF1CF06C08091F10081936150704059F02091F300809191
:207C8000F200322F20E090E0822B932B892B79F78091E8008B778093E80061157105B9F601
:207CA00005C08EB3882341F0853041F08091E80080FFF7CF80E0089582E0089583E00895C2
:207CC0000F931F93DF93CF9300D0CDB7DEB7E6EBF1E08091F100819381E0EE3BF807C9F792
:207CE00024DD8091E80083FFE4C08091B6019091B701953009F46DC0963040F4913081F1A7
:207D0000913070F0933009F0D4C02AC0983009F4A3C0993009F4B2C0963009F0CAC07CC023
:207D2000803809F4C6C0823809F0C3C08091BA0187708093E9008091EB001092E9002091DB
:207D4000E800277F2093E80090E025E0969587952A95E1F781708093F1001092F10087C0D8
:207D6000882319F0823009F0A4C08F71823009F0A0C08091B801882331F52091BA01277097
:207D800009F497C02093E9008091EB0080FF1BC0933021F48091EB00806213C08091EB0018
:207DA00080618093EB0081E090E002C0880F991F2A95E2F78093EA001092EA008091EB00E5
:207DC00088608093EB001092E9008091E800877F51C0882309F06DC01091B8011F770FB79B
:207DE000F8948091E800877F8093E8009ADD8091E80080FFFCCF8091E3008078812B809398
:207E0000E30080688093E300112311F482E001C083E08EBB0FBF4DC08058823008F049C033
:207E20008091B8019091B9016091BA01AE014F5F5F4F36DDBC01009709F43BC08091E8008E
:207E4000877F8093E80089819A8192DE8091E8008B778093E8002DC0803859F58091E800AA
:207E6000877F8093E8008091B4018093F1008091E8008E778093E80054DD1BC08823C9F4CA
:207E80009091B8019230A8F48091E800877F8093E8009093B40145DD8091B401882331F420
:207EA0008091E30087FD02C081E001C084E08EBB6CDC8091E80083FF0AC08091EB0080624E
:207EC0008093EB008091E800877F8093E8000F900F90CF91DF911F910F91089508951F9360
:207EE0008EB3882361F01091E9001092E9008091E80083FF01C0E4DE17701093E9001F916F
:207F00000895F999FECF92BD81BDF89A992780B50895262FF999FECF1FBA92BD81BD20BDBD
:207F20000FB6F894FA9AF99A0FBE01960895F894FFCF4341544552494E4100777700080031
:207F40000000000000080112011001020000084123360001000201000109023E00020100FF
:207F600080320904000001020201000524001001042402040524060001070582030800FF0C
:207F800009040100020A000000070504021000010705830210000104030904220341007216
:207FA000006400750069006E006F0020004C0065006F006E006100720064006F0000001836
:1A7FC00003410072006400750069006E006F0020004C004C004300000000D7
:00000001FF
